:1000000000300020353E00000538000011380000A7
:100010001D38000029380000353800004138000044
:100020004D38000059380000653800007138000074
:100030007D3800008938000095380000E136000066
:10004000A1380000AD380000B9380000C538000004
:10005000D1380000DD380000E9380000F538000034
:10006000013900000D390000193900002539000060
:10007000313900003D390000493900005539000090
:1000800061390000693500006D39000079390000E0
:1000900085390000913900009D390000A939000020
:1000A000B5390000C1390000CD390000D939000050
:1000B000E5390000F1390000D1370000FD390000BA
:10040000FFFFFFFFFFFFFFFFFFFFFFFF7EFBFFFF81
:1004100002B4714649084900095649008E4402BC9D
:100420007047C04602B4714649084900095C49005A
:100430008E4402BC7047C046002934D001230022FC
:1004400010B488422CD301242407A14204D2814253
:1004500002D209011B01F8E7E400A14204D2814263
:1004600002D249005B00F8E7884201D3401A1A43E0
:100470004C08A04202D3001B5C0822438C08A04217
:1004800002D3001B9C082243CC08A04202D3001BCD
:10049000DC082243002803D01B0901D00909E3E747
:1004A000101C10BC7047002801D00020C04307B4C6
:1004B000024802A14018029003BDC046D9000000C6
:1004C0000029F0D003B5FFF7B9FF0EBC4243891AEB
:1004D0001847C046002941D010B4041C4C40A44623
:1004E00001230022002900D54942002800D54042BE
:1004F00088422CD301242407A14204D2814202D293
:1005000009011B01F8E7E400A14204D2814202D2B2
:1005100049005B00F8E7884201D3401A1A434C08AF
:10052000A04202D3001B5C0822438C08A04202D3E5
:10053000001B9C082243CC08A04202D3001BDC080D
:100540002243002803D01B0901D00909E3E7101C4E
:100550006446002C00D5404210BC7047002806D0ED
:1005600003DB0020C043400801E08020000607B400
:10057000024802A14018029003BDC04619000000C5
:100580000029EBD003B5FFF7A7FF0EBC4243891A41
:100590001847C0467047C0468446101C62468C46C9
:1005A000191C634600E0C0461FB501F019FF002882
:1005B00001D40021C8421FBD10B501F05FFE4042CA
:1005C000013010BD10B501F00BFF002801DB002049
:1005D00010BD012010BDC04610B501F001FF00287C
:1005E00001DD002010BD012010BDC04610B501F096
:1005F00083FE002801DC002010BD012010BDC04694
:1006000010B501F079FE002801DA002010BD0120AC
:1006100010BDC0468446081C6146FFE71FB500F0C8
:10062000AFFB002801D40021C8421FBD10B500F067
:1006300037FB4042013010BD10B500F0A1FB00288F
:1006400001DB002010BD012010BDC04610B500F038
:1006500097FB002801DD002010BD012010BDC04621
:1006600010B500F045FB002801DC002010BD012082
:1006700010BDC04610B500F03BFB002801DA002099
:1006800010BD012010BDC046F8B5430242004F0224
:100690004C00C00F9B09120E061C9C46240EC90F6D
:1006A000BF09884254D0151B002D00DC7BE0002CD4
:1006B0003ED1002F61D0013D002D00D0A8E0DB1B12
:1006C000141C061C590141D59A019509281C02F0F9
:1006D0003DFE05388540844200DD76E0001B1F2486
:1006E0002B1C411C221ACB4095401F1C2B1C5D1E4D
:1006F000AB413B43012500240F201840042800D0C3
:10070000043301210E40580105D5FF2D5AD0B34CBA
:1007100023402C1C0135EDB2D908012D3BDD4B02E5
:10072000590AE4B2E4052143F607081C3043F8BD3A
:10073000FF2A2BD08021CC04274301231B2D49DD28
:100740006746FB1A141C061C5901BDD4651CD3E76F
:10075000151B002D4FDD002C13D0FF2A5AD080240A
:10076000E1040F4301231B2D00DCB0E06344141CA3
:10077000590155D4651C061CBEE7551C141C061CEB
:10078000BAE7002F7CD1551C141CB5E780276346BF
:100790007D00FF24B0E70029C3D0002C28D080279B
:1007A000FA031143BBE7002D47D1501CC3B2012B04
:1007B00000DC96E06446E51B680158D53D1B0E1C25
:1007C000141C83E7FF240021ACE7844B241A2B4040
:1007D000651C91E73E1C2021EE404D1BAF403B1CA9
:1007E0005F1EBB4133436746FB1A141C061CABE774
:1007F0004802410A96E7002D7FD1541CE1B201293D
:1008000053DDFF2C00D19BE0FB185B08951C73E7C0
:10081000FF2A92D1061C802063464500FF246BE727
:10082000671CFF2F3CD06D4A01261E4013405B0819
:100830003343A51C061C3C1C5EE76842002A25D0F9
:10084000FF2C70D08022D6041D1C3543AC460126F7
:100850001B2809DC62462025C2402B1A60469840BE
:10086000061C701E86411643BB1B0E1C2AE7141C77
:10087000002D00D02AE7002601250423002442E7AA
:10088000013D002D08D1FB18141C71E7002B50D13D
:10089000651C3B1C0E1C2FE7FF2A00D062E7B9E75E
:1008A00080235D00FF2404232DE7002A7CD1002B48
:1008B00000D1A0E0002F00D1AEE0FB18590100D418
:1008C000AFE0464E022533400124061C14E73C1CD1
:1008D0002023EC405D1BAF403B1C5F1EBB4123430C
:1008E00044E7002A12D16546002D41D1002FC2D025
:1008F0003B1C0E1C01250024FEE66D42002A23D17C
:10090000002B66D1651C3B1C061CF5E66246002ADE
:1009100038D1002F07D1802200265500304BFF240C
:10092000F1E6FF2C93D13B1C80270E1C7D00FF2499
:10093000E2E601380028F4D16646BB1B0E1CC1E676
:1009400080277D000423DEE6FF2C5BD08022D104CB
:100950000B439C4601231B2D08DC20216246EA4004
:1009600063464D1BAB40591E8B411343DB19FFE619
:10097000002F37D0EB1B5A014AD57B1B0E1C0125DB
:100980000024B9E6002F00D100E78020D308C4037B
:10099000234204D0FF08274201D13B1C0E1C8021BA
:1009A000DB004D00FF24A7E6002B1FD0002F00D155
:1009B000ECE68022DE08D503311C2E4203D0F90874
:1009C000294200D0311C061C8020CB004500FF24AA
:1009D00092E6013D002D13D1FB18C9E6FFFFFFFB96
:1009E000FCFFFF0363460125002485E680246500A3
:1009F0003B1CFF2480E63B1C061C012500247BE6F3
:100A0000FF2CA7D13B1C8027061C7D00FF2473E62A
:100A1000002B00D12FE76DE66346061C012500245C
:100A20006AE6061C0125002466E6C046F0B55F466E
:100A300056464D464446F0B44502440083B00E1C71
:100A40006D0A240EC70F002C07D1002D00D091E0B5
:100A5000042101228846924609E0FF2C55D08023CC
:100A6000180400210543ED007F3C88468A46331C6C
:100A700058007602D90F760A000E8B464CD101221F
:100A80009446002E00D081E05B467B4062464146A2
:100A900001930A430F2A50D9201A69018146750132
:100AA000A94200D3B3E00122534299441B240026FB
:100AB0000127621E381C10404B007600002900DA26
:100AC000A9E09D4200D8A6E0013C002C00DCABE090
:100AD00000280CD0191C76005B00002901DB9D4228
:100AE00001D85B1B3E43013C002C00DC9CE059001C
:100AF0007200002B01DB8D4201D8491B3A43013CB7
:100B00004B0056000029EADAEBE7002D2DD1082032
:100B1000022180468A46AAE7FF2820D080221304BB
:100B200000211E438C465B467B4062464146F600F0
:100B30007F3801930A430F2AAED8564992008A584B
:100B40009746019BFF260025F0052843DE0730432A
:100B500003B03CBC90469946A246AB46F0BD331C60
:100B60005A1E934102339C468EE70C220323904683
:100B70009A467CE7281C02F0E9FB7622441F534288
:100B8000A5401C1A00208046824670E7301C02F007
:100B9000DDFB7623411F8E405A420021101A8C46FD
:100BA00072E700233C4DFF26CEE75F46351C0197D8
:100BB0006346022BC5D0032B63D0012B43D049469B
:100BC0007F31002935DD0F272F40042F00D0043559
:100BD0002B0103D5314A494615408031FE29B0DC4E
:100BE000A801450ACEB2019BAEE700260025ABE77F
:100BF0008020C1030D4211D00E420FD10E4373026B
:100C00005D0AFF265B469FE701975346D1E7491BE4
:100C10001A2401264CE75B1B3E4355E70D436A024D
:100C2000550A3B1CFF268FE71D1C6B1E9D4135435B
:100C3000C5E77E2467424A46B91A1B2908DD019B95
:100C40000026002580E7019D00262B4000257BE73C
:100C50004E469E36281CB5402B1C5D1EAB41C8403D
:100C600003430F251D40042D00D004335A0103D542
:100C7000019B0126002567E79C01650A019B002670
:100C800062E78027FC0325436E02750A019BFF265D
:100C90005AE7C0466C870000FFFF7F00FFFFFFF7A9
:100CA0004302420070B55C0AC60F130E48024A00A8
:100CB000450A120EC90FFF2B05D0FF2A08D00120CC
:100CC00093420BD070BD0120002CFBD1FF2AF6D13E
:100CD0000120002DF6D101209342F3D1AC42F1D195
:100CE0008E4203D0002BEDD1002CEBD10020E9E7A0
:100CF000F0B5430242004F00C60F48025C0A450AA5
:100D0000130EC90F3A0EFF2B26D0FF2A29D0002B35
:100D10000CD1604260418446002A0AD0002816D1D6
:100D20008E4221D0002E14D1012014E0002AF7D1E8
:100D300094466F426F416046002805D1002FEFD0E6
:100D40000120002E07D004E00020002F03D100294D
:100D5000EAD101214842F0BD002CD6D002225042F7
:100D6000F9E7002DD3D0F9E79342DBDC04DBAC429A
:100D7000D8D80020AC42EED2002EEAD00120EAE71B
:100D8000F0B5430242004F00C60F48025C0A450A14
:100D9000130EC90F3A0EFF2B26D0FF2A28D0002BA6
:100DA0000FD0002A14D194466F426F41604600284C
:100DB00014D00020002F03D100290DD10121484279
:100DC000F0BD604260418446002AEDD00028F3D196
:100DD0008E4211D0002EF1D10120F1E7002FF7D083
:100DE0000120002EECD0E9E70220002CE8D1D4E766
:100DF0000220002DE4D1D2E79342EBDC04DBAC42CD
:100E0000E8D80020AC42DBD2002ED7D00120D7E7B3
:100E1000F0B55F4656464D464446F0B4450246009E
:100E200083B00F1C6D0A360EC40F002E06D1002DA4
:100E300070D1042101228846924609E0FF2E43D05A
:100E40008023180400210543ED007F3E88468A4632
:100E5000381C43007F02C10F7F0A1B0E8B463AD11C
:100E60000121002F62D158466040424601900A435A
:100E70000F2A3FD92C04F018260C3B041A0C311C05
:100E800051433F0C2D0C7E436A438146080C3618B3
:100E90002C1CB3187C439A4200D99AE009041D0423
:100EA000080C2E18B5011B0C691E8D41B20EE718F7
:100EB0001543BC0125432B014BD5012028400121BE
:100EC0006D088944054344E0002D1ED1082002210D
:100ED00080468A46BCE7FF2B12D0802210040743CD
:100EE0005846002160404246FF007F3B01900A4384
:100EF0000F2ABFD890005B4A844662441068874638
:100F0000391C4A1E91410231ADE70C220323904661
:100F10009A469DE7281C02F019FA7622461F534292
:100F2000B5401E1A00208046824691E7381C02F028
:100F30000DFA7621431F4A429F400021131A92E77F
:100F40000194514602292CD0032900D180E00129C7
:100F500048D04E467F36002E51DD0F242C40042C05
:100F600000D004352A0103D53F494E460D40803656
:100F7000FE2E3DDD019B01241C40FF210025C805FC
:100F8000E2072843104303B03CBC90469946A24672
:100F9000AB46F0BD0024354DFF21F0E75146022954
:100FA000D2D1019D01242C40FF210025E7E75E46B8
:100FB0003D1C0196C6E73D1CC4E78026F3031D4295
:100FC0000BD01F4209D11F437A02550A5C46FF210C
:100FD000D5E780225702E41960E71D436F027D0ABE
:100FE000FF21CCE7019B00251940CCB20021C6E7C8
:100FF0000198AD0101246D0AF1B20440BFE77E26DD
:1010000073424A469F1A1B2F05DD019D01242C4087
:1010100000210025B3E749469E312C1C8D402E1C33
:10102000FC40751EAE4126430F203040042800D0FE
:101030000436700105D5019F01243C4001210025A3
:101040009DE7019AB30101245D0A1440002196E74F
:101050008022D00305436C020199650A01240C40EB
:10106000FF218CE7AC870000FFFFFFF7FFFF7F0049
:10107000F8B5430245004F024C00C20F9809844660
:101080002D0E200EC90FBF09FF2851D00126714037
:101090008A4238D02C1A002C00DC86E0002822D1AD
:1010A000002F48D16E1C2C1C6346151C0F221A40C1
:1010B000042A00D0043301222A40580106D5FF2E0D
:1010C00000D181E0B04D341C2B400136F6B2DD0872
:1010D000012E62DD6802450AE4B2E4052543281CBE
:1010E000D2071043F8BDFF2D51D08021CB041F4300
:1010F00001261B2C70DD67462C1CBB1B151C5801E0
:1011000022D4661CD2E72E1A002E76DD002832D0BB
:10111000FF2D3CD08024E1040F4301231B2E00DC73
:10112000D1E063442C1C58017AD4661C151CBDE721
:10113000002FADD1AAE7013C002C6DD163462C1CD9
:10114000DB1B151C5801DCD59A019609301C02F0F6
:10115000FDF805388640844239DC001B1F231A1A2B
:10116000331C311C441C9340E1405E1EB3410B43D1
:10117000012600249AE7002F00D193E7013E002EBC
:1011800003D164463B192C1CCDE7FF2DC5D1151C9E
:10119000802263465600FF2488E7002D9CD0002C57
:1011A00028D08027F9030D4394E7002C45D16B1C10
:1011B000D8B2012800DC90E06446E61B730157D5E5
:1011C0003E1B2C1C0D1CC1E7FF24002585E76E4B40
:1011D000241A3340661C69E7381C2021E0400C1BB0
:1011E000A7403E1C771EBE41064367462C1CBB1B16
:1011F000151C84E76B025D0A6FE7002E79D16C1C29
:10120000E0B201284BDDFF2C00D198E061467F1849
:10121000AE1C7B08151C49E7FF2D00D068E7B6E738
:10122000671CFF2F36D058480121194003405B0846
:10123000A61C0B433C1C151C38E76642002D1ED033
:10124000FF286FD080256246EB041A43944601259F
:101250001B2E09DC62462023F24064469E1BB440EC
:10126000251C6C1EA54115437B1B041C0D1C69E746
:10127000002E0CD100220126042300241DE7644621
:10128000002C55D1461C3B1C041C0D1C0EE72C1CCD
:10129000151C5BE780235E00FF2404230DE7002D6F
:1012A00000D08CE06546002D00D1ACE0002F00D1CD
:1012B00080E07B195C0100D47DE0334F151C3B407E
:1012C00002260124F2E6381C2023F0409E1BB74082
:1012D0003B1C5F1EBB41034323E7002D15D1654630
:1012E000002D47D1002FC5D03B1C0D1C012600242A
:1012F000DCE67642002D26D16546002D00D07CE04C
:10130000461C3B1C041C151CD0E66546002D3FD135
:10131000002F07D1802100224E001C4BFF24CCE679
:10132000FF2894D180203B1C0D1C4600FF24BDE605
:10133000013E002EF4D13B1B0D1C041C02E780254E
:101340006E000423B9E6FF2851D080246146E304EF
:1013500019438C4601231B2E09DC20216446F440EE
:1013600065468E1BB5402B1C591E8B412343DB1950
:10137000041CD8E6002F1DD0EB1B58014AD57B1B5F
:1013800001260D1C002491E6FFFFFFFBFCFFFF037D
:10139000002F00D1FBE68020EB08C403234237D0A6
:1013A000FF08274234D13B1C0D1C8022DB00560075
:1013B000FF247BE66346151C0126002476E664467E
:1013C000002C14D0002F00D1E1E68023E608D803DA
:1013D000311C064203D0F908014200D0311C151C13
:1013E0008022CB005600FF2460E6FF28B2D1802087
:1013F0003B1C151C4600FF2458E6013E002EF4D18C
:101400007B19041C8FE63B1C151C012600244DE6AD
:10141000151CCAE7002B00D12CE7CCE770B5041EE1
:101420003CD0C50F00D04442201C01F08FFF9E210C
:10143000261C0B1A962B0ADC0838844061024C0AE1
:10144000DBB2DB051C43ED07201C284370BD992B44
:101450000ADD0522141A311CE140041C1B34A6408D
:101460000A1C711E8E41164305281BDC144C0F22EA
:1014700034401640042E00D00434620105D59F2369
:101480001B1AFF2B0CD00E4804405E1CF1B2E4087E
:1014900001290ADD6402640ADBB2D2E700250023D9
:1014A0000024CEE7411F8E40E0E7002CF4D0002B53
:1014B00003D08022D0030443ECE76602740AC0E73D
:1014C000FFFFFFFB10B5041E34D001F03FFF9E2349
:1014D0001B1A962B07DC083884406402610ADBB2D1
:1014E000D805084310BD992B0ADD021C1B32211CB4
:1014F00091400A1C511E8A410521091ACC4014430F
:1015000005281ADC184A0F2122400C40042C00D078
:101510000432510105D59F24231AFF2B21D01248F4
:101520000240591CCCB2D208012C09DD5002410AFC
:10153000DBB2D5E700230021D2E7421F9440E1E768
:10154000002A0BD0002B06D08021CC03224352026C
:10155000510ADBB2C4E75002410AC1E7DBB2002105
:10156000BEE7FF230021BBE7FFFFFFFBF8B55F46A7
:1015700056464D464446F0B40C03460F640A3443C5
:10158000A3465E001C03DB0F9C46630A98464D0091
:10159000530F44461C436D0DC90F760DD2000F1C2E
:1015A000C000A1469246AB1B614500D1A2E0002BD2
:1015B00000DCF0E0002E0CD1261C164300D1C0E068
:1015C000013B002B00D041E15C464B46821AE71AF2
:1015D00021E0D04EB54200D1C8E080244A4627041D
:1015E0003A439146382B00DD0AE11F2B00DD4BE129
:1015F0002026F61A4C4652465746B440B740DA40C9
:1016000022433E1C4C46771EBE41DC403243261C22
:101610005B46821A9F1B904280414642BB1B141CB2
:101620002E1C0F1C180200D4A9E05D02690A88462E
:101630004246002A00D1D4E0404601F087FE051C56
:10164000083D1F2D00DDD5E02822131A201C41463D
:10165000D840A940031C0B43AC40AE4200DD8BE0F8
:10166000AE1B711C1F2900DDFBE01F20851B1A1C0F
:10167000201CAA40C840AC401043661EB44104433D
:10168000CB40012200260F202040042862D0201DDC
:10169000A042A441614201255B182F401C0207D5DE
:1016A0009C4EB24200D198E09B4C161C2340013264
:1016B0005C07C00852050443DB08510D012960DDB9
:1016C0001B0371051B0B4E0D002000210A0D201C71
:1016D0001105924C0B43760575081C402C436300A2
:1016E0005A08FF07111C39433CBC90469946A24654
:1016F000AB46F8BD002B00DC8EE0002E2ED0854ED0
:10170000B54200D1A6E080244E4622041643B146DD
:10171000382B00DD16E11F2B00DD71E12026F61AC3
:101720004A46B240904652464446DA402243544626
:10173000B440261C741EA6414C463243DC401218AD
:10174000F4E0041C0F206A1C5B462E1C0F1C20407A
:1017500004289CD101252F40201C9FE7144300D072
:10176000DEE06A1C5B46041C2E1C8CE780215B4675
:10177000041C0A012E1C86E7761B674D2B40721C49
:1017800081E7251C1D4300D168E2002E41D0802056
:101790000203134394E7002B00D088E0691C4E0538
:1017A000740D012C00DC1BE15B46161C4C46821AB2
:1017B000191B90429B415B42C91A88460B0200D418
:1017C0009EE0371ABA4592415E46A41B5342E11A85
:1017D00088463C1C2E1C67462AE7161C0023002462
:1017E00072E7201C01F0B2FD2030051C083D1F2DC2
:1017F00000DC29E7031C283B9C40231C00242CE729
:101800004A4653461A430026002A00D100E7012227
:10181000FEE61D032B0B57E7002B00D005E16E1CE5
:101820007405630D012B00DCABE03A498E4200D118
:1018300031E11118814280414B4642425B449B1882
:10184000DC0749080C435B08AA1C1CE7314FBD426A
:1018500000D0C7E6041C80205B460F1C02012E1C32
:1018600011E7301C1F381A1CC240151C202900D15A
:1018700083E03F218E1BB3401C43631E9C412C43DD
:10188000012200230026FEE61C1C203C4F46E740B8
:101890003E1C202B73D04022D41A4B46A3401A1C66
:1018A00057463A43531E9A4132430026B0E65F4200
:1018B000002D51D0174DAE4200D156E180245A463A
:1018C00021040A439346382F00DDDBE01F2F00DDA3
:1018D00079E12021CC1B051C5A46A240FD40A040C6
:1018E00015435B46421E90412843FB4057463C1A35
:1018F000A24592414846C11A55424B1B674691E6A4
:10190000081C104331D100270122002304200026A7
:10191000C4E6C046FF070000FFFF7FFFFFFF0F8008
:10192000013B002B24D153461A184C468242804179
:101930005C444342E3182E1C141C18023ED4721C53
:101940000F1CA0E64A4653461A430024002A00D141
:10195000F5E601221218E9E75B46034300D083E075
:10196000231C721C544667468DE6141C2E1C5FE631
:10197000CD4EB54200D0CBE66CE700237CE70022D9
:101980008EE75E460643002D00D0F4E0002E00D125
:101990004CE14B46134300D17EE115184E4685427B
:1019A00080415E444242B3181E0200D482E1BF4F20
:1019B0002C1C3B4002220F1C012664E6BA4D701C11
:1019C000A8424BD0B94F0125254062083B402C1C52
:1019D000DF0714433C43B21C5B08061C0F1C52E695
:1019E0005E460643002D2CD1002E00D07DE04E46F1
:1019F000141C164387D04B4667460122002642E658
:101A00001E1C203E4C46F440261C202B00D1D8E062
:101A10004022D41A4B46A3401A1C54462243531E5C
:101A20009A4132430024121880E75B42002D37D1DF
:101A30005C46044300D0D7E0721C4B4654460F1C52
:101A400021E6002E6ED14B46141C134300D1DCE07E
:101A500080254B4667462A01934E14E68021061CDA
:101A60000A010023042019E6013F002F79D1171A3B
:101A70005B46BA45AD414946CA1A68423C1C131A36
:101A80006746CFE55F46074300230020002F00D1C3
:101A90002CE701202AE780252A0100230420FDE508
:101AA000814DAE4200D1D3E080245D46220415432F
:101AB000AB46382B00DDB0E01F2B00DDDBE020253E
:101AC000ED1A021C5C46AC40DA40A840451EA84115
:101AD000224302435846D840031C554654195445E6
:101AE00092414B4450421B1827E74A465646324320
:101AF00000D185E0851B5B464C46A8429241191BEC
:101B000056428B1B1E0200D4ADE057463D1A5B4681
:101B1000AA458941E41A4A42A31A67462C1C0122AD
:101B20000026B0E54D46161C154344D05C46802186
:101B3000C0086207E3080D0310432B4200D181E087
:101B40004C46E10829427DD1F70866073E430B1C4D
:101B50006746700FDB008022F40003431201524EEF
:101B600091E5514DAE4200D0ADE680204B46544643
:101B70006746020187E5002E5ED04C4614431AD01A
:101B8000C7088025584643072C03C0081F4320423E
:101B900008D04E46F308234204D15246D5087707B1
:101BA000181C2F43C300FC00780F0F1C8021034337
:101BB0000A013D4E67E5802632015B46041C3A4E21
:101BC00061E5002229E7391C20395C46CC40221C03
:101BD000202F67D04023DF1B5D46BD402843431EB6
:101BE00098411043002381E6013B002B2CD1504447
:101BF0005C469042AD414C446A42A318041C9CE6EA
:101C00005B46041C012200263DE5802404210027B8
:101C10002201274B4842244E40E55D460543002300
:101C20000022002D00D158E7012256E7141C4B4634
:101C30000F1C0122002626E5141C80224B461201AF
:101C4000194E20E5061C84E7174A964200D030E77B
:101C50000F1C80214B4654460A0114E57605760D8B
:101C60000023002430E5181C284300D14BE62C1C2F
:101C70000122002607E51C1C203C5D46E5402C1C8B
:101C8000202B1CD04022D31A5A469A400243501EA1
:101C900082412243002320E75B46041C0F1C0122E3
:101CA0000026F0E4002599E7FF070000FFFF7FFF13
:101CB000FFFF7F002C1C0F1C01220026E3E4002202
:101CC000E4E7C046F0B54D4644465F465646F0B49C
:101CD0001D1C4B00141C0E035B0DCA0F87B0071CA4
:101CE000360B98469146002B1DD1321C024300D181
:101CF00081E1002E00D104E2301C01F027FB2728EF
:101D000000DDF8E12821031C083B0A1A391C9E401B
:101D1000D1400E439F40C14B0021181A002280463B
:101D20008A4600920FE0BE48834231D080214B03A7
:101D30001E43BC487A0FF600002100231643FF0023
:101D400080448A460093291C201C251C4A000C0351
:101D5000CB0F240B520D9B4625D1211C014300D1F2
:101D600050E1002C00D1C2E1201C01F0EFFA27283D
:101D700000DDB6E1031C2822083B291C121A9C40F6
:101D8000D1400C439D40A54B1A1A0020029019E047
:101D9000321C3A4300D029E108270223BA46002624
:101DA00000270093CFE79E48824200D113E18021B3
:101DB0004B031C439B49680FE40000230443ED00E0
:101DC0005218029348465B4643400298514601939D
:101DD00001430F2900D8DFE043469A1A0492A64235
:101DE00000D86EE171087B08F6073343FA0789468D
:101DF00098460292280E240204432D022704390C2F
:101E0000AB46250C00914846291CFEF715FB009FA8
:101E1000061C4743291C4846FEF752FB434608046C
:101E20001A0C1043874207D90019013E844203D897
:101E3000874201D9013E0019C11B8A46081C291C92
:101E4000FEF7FAFA009B071C4343291C50469946AB
:101E5000FEF736FB424610040B04010C0B43994578
:101E600004D91B19013F9C4200D864E136043E436B
:101E70005F464A46390C89469B1A59463204170C6C
:101E80000A0449467943120C03928C460399300C9C
:101E90007A4341434F4678438C44170C6744B94218
:101EA00002D9802149024018390C120440183F041D
:101EB000110C7F18834200D227E100D141E1029941
:101EC0001B1ACF1BB942804141425A1A9046A24286
:101ED00000D15FE1101C291CFEF7AEFA009B0290B6
:101EE0004343291C40469A46FEF7EAFA380C090497
:101EF00001438A450AD9029A0919013A02928C4291
:101F000004D88A4502D9013A029209195346C81ADF
:101F1000291C0590FEF790FA009A291C424380463E
:101F200005989246FEF7CCFA3F040D043A0C2A437A
:101F3000924509D901214B4212199844944203D881
:101F4000924501D998441219029D43462F041F431C
:101F50005046111A3804030C4D465D430398AC46B5
:101F6000039D3A0C584355434B465A43AC44030C2B
:101F700063449D4202D980256D0252191D0C000454
:101F800052191B04050C5B19914200D2E6E000D106
:101F90003DE1012217435AE0890023488C46604402
:101FA00001688F46019B1E4A002600270020002161
:101FB000381C0F0D3C051D4D3443120525401543BB
:101FC0006E00DB077108194307B03CBC9046994688
:101FD000A246AB46F0BD211C03202943029000D04D
:101FE000F0E60223002400250293EBE60C200321F7
:101FF00082460091A7E604270123BA46002600275F
:102000000093A0E60121002400250291DAE60127D1
:102010000023074E7F42024AC8E7C0460DFCFFFF7F
:10202000FF07000001FCFFFFEC870000FFFF0F80AF
:10203000FFFF0F002F1C5A46029D261C0192022D05
:10204000B0D0032D00D101E1012D00D19CE0049B13
:1020500082481A18002A00DC8CE00F243C40042C33
:1020600005D03B1DBB42BF417D4276191F1CF101CB
:1020700005D57B4A04998020C40016400A19794B83
:102080009A4200DD8EE77507FF08760251052F435F
:10209000360B4A0D019B89E700220026002785E7C1
:1020A000802001030E4216D00C4214D10C432603AB
:1020B000360B5B462F1C6C4A78E74C460194009D1A
:1020C000BDE7A64243D00498B846013800270490E3
:1020D000B14602978EE60E4333031E0B624A4B460F
:1020E00064E7041C283CA5402C1C00254BE601F0AD
:1020F0002DF920303BE6061C283EB7403E1C002749
:1021000009E601F023F92030F9E5029A013E111C9D
:1021100059445945924152421219D3189C4204D253
:1021200098426BD816D01B1ACBE6A342FBD18B4545
:10213000F6D9231AC5E6994500D897E6013F1B1941
:1021400094E6029ABA42E0D302990023B9E6AF427C
:10215000B9D947E68F4251D80023B2E60919013FA9
:1021600058468C4219D9914200D012E7984200D0CB
:102170000FE76CE73D4C049D631B382B1CDD019B76
:1021800000220026002711E7019B00222B40002699
:1021900000270BE701277F4259E78A4203D800D086
:1021A000F7E69842E2D25D4668005845AD416D427F
:1021B0002C19013F0919D6E71F2B34DC049C2C4A4B
:1021C000381CA518311CAF40D840A9403C1C014325
:1021D000671EBC410F1C2743DE400F233B40042BEE
:1021E00005D03A1DBA42BF417D427619171C320212
:1021F00011D5019B012200260027D7E659445945F5
:10220000924152421219D318013E1B1A59E6002B73
:10221000A4D10020AAE77007FF08710207430E0B44
:10222000019B0022C2E61349049C301C0A1BD040CB
:10223000051C202B08D0104BE1188E4037437B1E25
:102240009F412F430026C8E70026F7E780221003AE
:10225000064331030E0B019B034AA7E6FF03000070
:10226000FFFFFFFEFE070000FF07000002FCFFFF6C
:102270001E040000E2FBFFFF3E040000F0B59446A0
:1022800047461A03061C580080B4170B420D194824
:102290000D034C00DB0F2D0B640DC90F98468442D3
:1022A00008D0144882420DD00120944212D004BCC0
:1022B0009046F0BD2B1C33430120002BF7D10D4875
:1022C0008242F1D163463B430120002BEFD1012034
:1022D0009442ECD1BD42EAD16645E8D1414506D0F1
:1022E000002CE4D1281C3043451EA841DFE7002024
:1022F000DDE7C046FF070000F0B557464E464546AD
:10230000E0B4041C4E000803C90F8A46171C59008C
:102310001A03050B700D160B4A0D3049DB0F9C4656
:10232000884232D02D498A4235D000280FD1291C4D
:1023300021434B424B419846002A0BD0002B1AD127
:10234000E2452CD05546002D18D1012018E0002A76
:10235000F6D19046311C39434B424B41414600294E
:1023600006D1002BECD056460120002E08D005E007
:102370000020002B04D16746002FE6D101235842EC
:102380001CBC90469946A246F0BD2B1C2343C9D0E5
:1023900002214842F4E7331C3B43C6D0F8E79042A1
:1023A00005DC09DA5246002AE8D00120E8E7544665
:1023B000002CE3D10120E3E7B542C3D807D00020C9
:1023C000B542DDD250460028D8D00120D8E7BC4223
:1023D000B8D80020BC42F5D3D2E7C046FF070000C2
:1023E000F0B544465F4656464D46F0B49446061C4A
:1023F0001A035800170B420D2E480D034C00DB0F3B
:102400002D0B640DC90F9846844233D0294882426F
:1024100036D0002C19D0002A20D1934663463B4386
:10242000584258415B468246002B1DD05146002041
:10243000002904D14246002A14D1012460423CBC48
:1024400090469946A246AB46F0BD2B1C33435842FA
:1024500043419B46002AE1D0002BEBD1414515D0EA
:102460000029EAD10120EAE70028F7D0012000295D
:10247000E5D0E2E72B1C33430220002BDFD1C5E778
:1024800063463B430220002BD9D1C2E79442E7DCEC
:1024900005DBBD42E4D806D00020BD42CFD20029E2
:1024A000CBD00120CBE76645DAD800206645F6D3CD
:1024B000C5E7C046FF070000F0B5564644465F46F4
:1024C0004D46F0B44F001D1C0B03141C1A0B7B0D62
:1024D00087B0061C92469846CF0F002B21D10243AD
:1024E00000D149E15346002B00D1E4E1504600F011
:1024F0002DFF031E272B00DDD8E1083B51469940F4
:1025000028228846111A321CCA4041460A43924684
:102510009E40D84B0022181A002180469146039114
:1025200011E0D54883423ED0802153464A031A43E6
:10253000D000710F0843D14A824600230020F600E4
:10254000904499460390291C201C251C4A000C032A
:10255000CB0F240B520D9B4631D1211C014300D1DE
:1025600012E1002C00D19DE1201C00F0EFFE272895
:1025700000DD91E1031C2822083B291C121A9C4013
:10258000D1400C439D40BB4B59461A1A794000205C
:102590004B46019103430F2B26D89900B84B8C462C
:1025A000634419688F46111C314300D0DFE00826D0
:1025B00000200221B146824600260391C3E7AE48BF
:1025C000824200D1C9E080214B031C43AB49680F14
:1025D000E4000443ED0052180020594679404B4670
:1025E000019103430F2BD8D94244330429040492A8
:1025F0001A0C0F0C101C7843360C331C80462D0C23
:102600007B43301C6843111C69439C464346834608
:10261000180C08186044844500D91FE1010C43469A
:10262000039119040B0C0004C0182104240C05901C
:10263000101C6243090C02924843321C66434A4311
:10264000029BB146060C9046B4461A1C62444244B2
:10265000904502D9802673029944160CB046C144B5
:1026600000044B46060C120402939319564632049A
:10267000100C021C6A439C46031C7B439146320C9F
:10268000574398461B0C9A46D144B94455434F458D
:1026900002D980277E02AD194B461F0C4646ED1924
:1026A0001F0433041E0C031C4B436043514354432B
:1026B0001A0C8018B046401847449A46814202D905
:1026C00080214E02A419039B1A1C62445A4462459D
:1026D00089414E425146B34603040E049C4602997A
:1026E000330C6344CE18B046C246DA44D219BA421B
:1026F000BF4151467B426F18F9189946DA459B4114
:102700005E42029BB3469845B64176425B461E4305
:10271000000C49459B41AF42AD4136186F425842CB
:10272000384336180598341956020643CB0D640217
:10273000701E8641D20D164349021C430E43E00130
:102740002FD50127049D374073083E1CE007013553
:102750001E4304950643640823E0231C2B430320F7
:10276000002B00D039E700240025022035E70C2299
:10277000032391460393E6E6042600230120B14695
:102780009A4600260390DEE600240025012024E777
:1027900003985446022844D0032800D1EAE00128D7
:1027A00060D0049A37495018002800DC95E00F27C4
:1027B0003740042F05D0311DB142B641754264192E
:1027C0000E1CE10105D53048049A8023DF00044047
:1027D000D0192E49884224DC019B6507F608640263
:1027E000420501272E43240B520D1F4000200021DB
:1027F000090D0D052543264C12052C40144363009A
:10280000301C5E08FF07311C394307B03CBC9046C2
:102810009946A246AB46F0BD5A462E1C01920228AC
:10282000BAD1019E01273740134A00240026DDE774
:10283000544601970398ADE701260027154C7642D0
:102840000D4AD3E72E1CA5E78022130351461942F7
:1028500035D10B431D032C0B074AC7E780214B02E0
:102860009B44DBE6019B00221840C7B200240026EF
:10287000BCE7C0460DFCFFFFFF07000001FCFFFFA7
:102880002C880000FF030000FFFFFFFEFE07000092
:10289000FFFF0F80FFFF0F00041C283CA5402C1CED
:1028A000002570E600F052FD203060E6283B9E4097
:1028B000B24600262DE600F049FD203019E61C4204
:1028C00006D11C432603340B5F462E1C2E4A8DE78F
:1028D0000B431803040B2C4A88E72C4F049D7B1BE9
:1028E000382B06DD019E01273740002200240026F8
:1028F0007CE71F2B21DC049A254F351CD119201CA5
:102900008E40DD408840321C2843561EB241061CD2
:102910001643DC400F233340042B05D0371DB7424C
:10292000B641714264183E1C250217D5019B012750
:102930001F4001220024002658E71648049A211C53
:10294000871AF9400D1C202B12D0134BD01884404D
:102950002643721E96412E430024DBE7019A650749
:10296000F6086002012717402E43040B00223DE7C2
:102970000024EDE780210F033C4301982403012745
:10298000240B0740004A31E7FF07000002FCFFFF6D
:102990001E040000E2FBFFFF3E040000F0B55746B6
:1029A0004E464546E0B4071C0D034E00680ACC0FA6
:1029B000790F08438446111C18035A00FD00400A91
:1029C000DF0F4B0F1843C74BC900760D520D8A46D7
:1029D0009A4200D1DEE001235F40B946BC4200D1FB
:1029E000A6E0B71A002F00DC0BE1002A12D15246F4
:1029F000024300D1D2E0013F002F00D05BE15146FD
:102A00006F1ABD42AD4162466B42101A3D1CC31A9B
:102A1000371C24E0B34A964200D1DEE080210B044B
:102A20001843382F00DD1EE11F2F00DD60E120215B
:102A3000C91B021C53468A40FB401A4353468B4035
:102A4000191C4B1E9941031C0A43FB40AA1A6746F6
:102A50009542AD41F81A6B42C31A151C371C1A0275
:102A600000D4C2E05E02710A88464246002A00D1C4
:102A7000EBE0404600F06AFC021C083A1F2A00DD29
:102A8000ECE02823181A2E1C4146C6409140331C06
:102A90000B439540974200DDA4E0D01B411C1F2949
:102AA00000DD0DE11F273A1A2E1C181CCE40904065
:102AB000954030436A1E9541CB40054301210027D4
:102AC0000F262E40042E00D170E02E1DAE42AD41E7
:102AD000684201221B181440180207D5814FB942E1
:102AE00000D1AEE0804D0F1C2B400131F2084905AA
:102AF0005E073243DB08480D012800DC77E01B034A
:102B00007F051B0B7E0D002000210D0D101C2905DB
:102B1000764A0B4377057E081A40324353005D081E
:102B2000291CE40721431CBC90469946A246F0BDEF
:102B3000B31A002B00DCA3E0002A3BD0694A96427E
:102B40004BD080210F043843382B00DC14E153466E
:102B5000184300270022002800D001225219AA425F
:102B6000AD4167446B42FB18151C371C1E023CD557
:102B70005C487E1C864200D177E15B4901222A40F5
:102B80000B406808151CD90705430D435B08B91CA9
:102B9000371C95E7014300D11DE71EE7711C371C68
:102BA0000F2663462E40042E00D08EE701221440EB
:102BB0002E1C91E752460243F0D0013B002B09D175
:102BC00057467919A9429241554260444319371C2E
:102BD0000D1CCBE743498E42B6D1802063460101EC
:102BE000371C6DE7BF1A404A1340791C68E7151C73
:102BF0001D4300D120E2002F3ED0802631030B433D
:102C00007DE7002F00D085E0721C51054B0D012B94
:102C100000DCEFE05746EA1B95429B416746391AB4
:102C20005B42C91A88460B0200D49CE05446651BDF
:102C3000AA459241C01B5742C31B9846371C4C46BD
:102C400013E70E1C002300225DE7281C00F07EFB2A
:102C50002030021C083A1F2A00DC12E72838854081
:102C60002B1C002516E75746384300230022002876
:102C700000D1EBE60122E9E61803030B002642E748
:102C8000002B00D0D8E0771C79054A0D012A00DC22
:102C900094E0144B9F4200D1FDE051464919A942EE
:102CA000AD4162466B428018C2184908D5070D43F2
:102CB0005308B11C04E70B498E4200D0B1E68CE703
:102CC000061C1F3E1F1CF7403E1C202972D03F22CD
:102CD000101A83401D436B1E9D4135430121002383
:102CE0000027EDE6FF070000FFFF7FFFFFFF0F80DB
:102CF0003B1C203B011CD9400B1C202F5CD04022E8
:102D0000D71BB840021C50460243511E8A411A4349
:102D100000239BE67F42002E40D0CA4CA24200D145
:102D20001FE1802166460B041E43B446382F00DDA8
:102D3000A9E01F2F00DD3DE12023DE1B291C644696
:102D4000B440F940B5406B1E9D41214363460D439D
:102D5000FB4057467D1BC01AAA459B415F42C31BDF
:102D60004C46171C7BE60D1C154320D10024012185
:102D7000002304260027AFE61F2B4ADC2021C91AB6
:102D8000071C52468F40DA403A4357468F40391C61
:102D90004F1EB941D8400A43071CDFE664462C4366
:102DA00069D1511C031C5546171C4C4688E6151C5E
:102DB000371C5AE600238DE70022A4E767462F431D
:102DC000002E00D0D4E0002F00D126E1534603436B
:102DD00000D1E4E051464F19AF42AD4160446E422C
:102DE00083191E0200D44EE197483D1C0340022186
:102DF000012765E661462943002E29D1002976D1B5
:102E000051460143B2D0031C55464C4601210027D0
:102E100056E61F1C203F011CF9400F1C202B00D13F
:102E2000C6E04022D31A9840021C50460243531E6B
:102E30009A413A43002791E65B42002E30D1674623
:102E40002F4300D0C8E0511C031C5546171C37E621
:102E5000002965D15746074300D1C8E0031C8020F4
:102E600055464C460101774F2AE68023371C19014D
:102E70000426002330E6013F002F6ED15446614600
:102E8000651B401A68E767463D430023002D00D1CB
:102E90005FE701255DE780263101002304261BE65C
:102EA00068498A4200D1C1E08027664639040E4352
:102EB000B446382B00DDA2E01F2B00DDD0E020213E
:102EC000C91A2E1C67468F408D40DE403E43291CA8
:102ED00067464D1EA941DF40351C0D433E1C55443D
:102EE00055459B4130185E428319171C3EE65646F5
:102EF000064354D05746EA1B63469542B641191A19
:102F00007342CB1A1E0200D4A2E07D1B6446AA4580
:102F1000BF41001B7A42831A4C4601210027CFE5AE
:102F2000564606433FD0624680215707ED08D30836
:102F30000A033D43134208D0C608164205D1554640
:102F4000EC0845072543331C4C46680FDB00802600
:102F50000343ED0031013B4FB2E53A498A4200D0CC
:102F6000E4E68026031C55464C463101171CA7E5B4
:102F7000002F4CD05346034315D062468026ED08FF
:102F80005107D30837030D433B42DED0C2083A4213
:102F9000DBD15546E9084507131C0D43D5E76346C9
:102FA000012100278CE5802739016346254F87E5FD
:102FB00000223AE73C1C203C6646E640331C202FAA
:102FC0005FD04024E71B6646BE40311C0D43691E9E
:102FD0008D411D430023BCE6013B002B22D155440B
:102FE0005545BF417B426044C318171CBEE5802194
:102FF000042200240901154B5642124F6CE563462A
:103000001D430026002D00D169E7012567E78022D6
:10301000031C554611010B4F52E5031C5546012177
:1030200000274DE507498A4200D042E78021031C72
:1030300055460901171C43E57A05560D0023002269
:1030400061E5C046FF070000FFFF7FFFFFFF7F0035
:103050001D1C154300D189E6151C012100272FE511
:103060001F1C203F6146F940202B10D04026F31A48
:1030700067469F403B1C1D436B1E9D410D43002630
:103080002DE70021A2E73D1C0121002718E50023C0
:10309000F1E7C046134A0B0330B5051C48001C0B72
:1030A000C90F430D0020934211DD0F4883420FDC0E
:1030B000802250030D4A0443D01A1F280BDD0C4D0B
:1030C000EB1ADC40221C5042002900D1101C30BDFC
:1030D000084C0819FBE7C54007482A1C1D18AC40DE
:1030E0002243F0E7FE0300001D040000330400004B
:1030F00013040000FFFFFF7FEDFBFFFFF8B5041E88
:103100002DD0C50F00D04442201C00F01FF91649F5
:103110000A1A0A2816DD0B388440570526037A0D53
:10312000360B002700200021381C0F0D3B050F4CEB
:1031300033431C401605344361004A08ED07111C57
:103140002943F8BD0B26011C301A1531231CC4403D
:103150008B40520521031F1C0E0B520DE2E7002588
:10316000002200260027DDE71E040000FFFF0F807D
:10317000410070B50E0E731C4202C50FD8B2540A3E
:10318000012815DD6307E024A000120B341800208D
:103190000021181C0B0D1E051C4B324361054C0809
:1031A000134023435A005608ED07311C294370BDD4
:1031B000002E16D1002C1ED0201C00F0C7F80A28C3
:1031C0001DDC0B22111A021C231C1532CB4094402B
:1031D0001E1C231C34030E4E220B301A41054C0DCD
:1031E000D5E7002C03D06307120B0A4CCFE7094C3C
:1031F00000220023CBE7002400220023C7E7011CA4
:103200000B398C40261C0023E4E7C046FFFF0F80EB
:1032100089030000FF070000F0B5041C4800400DC2
:103220000B03CD0F411C620F5B0A4F051343E600F1
:103230007A0D012A35DD3E494218FE2A18DD802329
:103240005900FF220423580105D5FF293FD0394FEB
:103250000A1C3B400131CCB2DF08012C19DD790298
:103260004F0AD2B2D2051743ED07381C2843F0BDF0
:10327000002A2FDDA401770F611E8C41DB002E4E4A
:10328000234381193B430F261E40042EDBD0043319
:10329000D9E7002FE5D0002A16D08020C603374397
:1032A000DDE7002806D133430121002B15D104238B
:1032B0000022C8E71E43C2D08024DB00A004802681
:1032C00003437100FF22DEE77B025F0ACAE7FF22A9
:1032D0000027C7E7173203DA012105230022B2E7EE
:1032E0008022164F11040B433C1A1F2C0DDC14498D
:1032F000321C4718BE40301CBB40461EB041E24065
:103300000343134301210022BDE70E4A1F1C111A7B
:10331000CF403A1C202C09D00B4C0019834033437A
:103320005E1EB341134301210022ACE70023F6E700
:1033300080FCFFFFFFFFFFFB81FCFFFF9E030000FF
:1033400082FCFFFF7E030000A2FCFFFF1C21012383
:103350001B04984201D3000C10391B0A984201D378
:10336000000A08391B09984201D30009043902A256
:10337000105C40187047C0460403020201010101BD
:103380000000000000000000C046C046C046704774
:1033900001B40020C046C046C046C04601300928DE
:1033A000F8D9C046C046C046C046C046C046C04622
:1033B00001BC704780B582B000AF021CBB1D1A80F3
:1033C00006E0FFF7E5FFBB1DBA1D1288643A1A80BC
:1033D000BB1D1B88642BF4D806E0FFF7D5FFBB1D8F
:1033E000BA1D12880A3A1A80BB1D1B880A2BF4D812
:1033F000BD4602B080BDC04680B500AFBD4680BDB1
:1034000080B584B000AF78602C4BFB60FB687A68B5
:103410005A602B4BFA681A602A4A2A492A4BCB5821
:10342000802149041943284BD150284B00221A60AF
:10343000264B00225A60254B0022DA60234B0022E3
:103440005A61224B0022DA61204B00225A621F4B44
:103450000022DA621D4B00225A631C4B1C4A9A6000
:103460001A4B4C22DA621B4B1A4A11691A4A0A405B
:103470008021C9000A431A61FB68184A1A60184A79
:103480001749C4239B00C958164B0B4080210902E1
:103490001943C4239B00D150114B114A126880215B
:1034A00089020A431A60094B4B221A600E4BFA68D4
:1034B0005A60FB68181CBD4604B080BDE8F0FF1FD1
:1034C000F0F0FF1F007004403C100000008003403B
:1034D000FFFF000000C00440FFF8FFFE01010000F4
:1034E00000E100E0FF00FFFFF8F0FF1F80B582B0B1
:1034F00000AF7860034B00225A600023181CBD46C1
:1035000002B080BD0080034080B584B000AFF86099
:103510007A603B1C0B330A1C1A703B1C0B331B7864
:10352000002B01D0822315E03B1C0B331B780B4A88
:10353000D35C012B01D009230CE0094A3B1C0B335F
:103540001B780849CB5C0133DB00D3189A687B6891
:103550001A600023181CBD4604B080BD70880000AE
:10356000008003406C88000080B582B000AF274B1C
:103570001B683B6000237B60254B1A688023134047
:1035800004D07B688022520013437B60204A214B89
:103590001B780133DB00D3185A688023134003D013
:1035A0007B68012213437B603B681A687B68134089
:1035B0007B607A6880235B0013400AD0144B144A66
:1035C000126880210A431A603B685B68181C01F08E
:1035D000B1FD7A680123134015D00D490D4B1B78BE
:1035E000181C0B4A0B4B1B780133DB00D3185B68AC
:1035F00080221A43431CDB00CB185A603B685B688F
:10360000181C01F08BFDBD4602B080BDF0F0FF1F1D
:10361000008003406C88000080B584B000AF786003
:10362000114BFB60FB687A681A60104B0F4A5269B5
:10363000802149010A435A610C4B0C4A11680C4A1B
:103640000A401A600B4B0B4A116B0B4A0A4080214F
:1036500049000A431A63094BFA681A60FB68181C90
:10366000BD4604B080BDC046F4F0FF1F00F00F401F
:10367000FFEFFFFF00900440FFF8FFFEF8F0FF1F90
:1036800080B582B000AF7860034B802252019A600F
:10369000BD4602B080BDC04600F00FF880B582B0D4
:1036A00000AF7860034B802252015A60BD4602B0E1
:1036B00080BDC04600F00FF880B500AF064B002279
:1036C0001A60054B054A5A60034B00229A60024B70
:1036D00007221A60BD4680BD10E000E000127A00AB
:1036E00080B500AF024B01221A70BD4680BDC046B6
:1036F00064F1FF1F80B500AF034B5B69181C00F03D
:10370000D7FABD4680BDC046F8F0FF1F80B500AFB8
:10371000034B9B68181C00F063FBBD4680BDC04690
:10372000F8F0FF1F80B500AF034BDB68181C00F0FA
:1037300009FBBD4680BDC046F8F0FF1F80B584B0D0
:1037400000AF78601A4BFB60FB687A681A60194B0F
:10375000FA681A60184B184A916B184A0A4080217F
:1037600049000A439A63144B134A916B144A0A4066
:10377000852149040A439A63124A1249C7239B00D0
:10378000C958114B0B40802109041943C7239B00E2
:10379000D1500C4B0B4A12688021C9050A431A60AC
:1037A0000A4BFA681A61FB68181CBD4604B080BD5C
:1037B00010F1FF1F14F1FF1F00900440FFF8FFFEFF
:1037C000FFFFF0FE00E100E0FFFF00FFF8F0FF1F49
:1037D00080B582B000AF094B1B687B60084B084A7C
:1037E000926B802149040A439A637B681B68181C0A
:1037F00000F004FBBD4602B080BDC04614F1FF1FBF
:103800000090044080B500AF01F084FCBD4680BD4F
:1038100080B500AFFFBEBD4680BDC04680B500AFDD
:10382000FFBEBD4680BDC04680B500AFFFBEBD46F1
:1038300080BDC04680B500AFFFBEBD4680BDC0465E
:1038400080B500AFFFBEBD4680BDC04680B500AFAD
:10385000FFBEBD4680BDC04680B500AFFFBEBD46C1
:1038600080BDC04680B500AFFFBEBD4680BDC0462E
:1038700080B500AFFFBEBD4680BDC04680B500AF7D
:10388000FFBEBD4680BDC04680B500AFFFBEBD4691
:1038900080BDC04680B500AFFFBEBD4680BDC046FE
:1038A00080B500AFFFBEBD4680BDC04680B500AF4D
:1038B000FFBEBD4680BDC04680B500AFFFBEBD4661
:1038C00080BDC04680B500AFFFBEBD4680BDC046CE
:1038D00080B500AFFFBEBD4680BDC04680B500AF1D
:1038E000FFBEBD4680BDC04680B500AFFFBEBD4631
:1038F00080BDC04680B500AFFFBEBD4680BDC0469E
:1039000080B500AFFFBEBD4680BDC04680B500AFEC
:10391000FFBEBD4680BDC04680B500AFFFBEBD4600
:1039200080BDC04680B500AFFFBEBD4680BDC0466D
:1039300080B500AFFFBEBD4680BDC04680B500AFBC
:10394000FFBEBD4680BDC04680B500AFFFBEBD46D0
:1039500080BDC04680B500AFFFBEBD4680BDC0463D
:1039600080B500AFFFBEBD4680BDC04680B500AF8C
:10397000FFBEBD4680BDC04680B500AFFFBEBD46A0
:1039800080BDC04680B500AFFFBEBD4680BDC0460D
:1039900080B500AFFFBEBD4680BDC04680B500AF5C
:1039A000FFBEBD4680BDC04680B500AFFFBEBD4670
:1039B00080BDC04680B500AFFFBEBD4680BDC046DD
:1039C00080B500AFFFBEBD4680BDC04680B500AF2C
:1039D000FFBEBD4680BDC04680B500AFFFBEBD4640
:1039E00080BDC04680B500AFFFBEBD4680BDC046AD
:1039F00080B500AFFFBEBD4680BDC04680B500AFFC
:103A0000FFBEBD4680BDC04680B500AF364A3749CF
:103A1000374BD150374A88235B010021D150354ABA
:103A2000354BC0218902D150324A3249334BCB58F1
:103A3000B02149011943314BD150314B9B78DBB256
:103A40001A1C0823134007D02D4B2D4A9278D2B26E
:103A500008210A43D2B29A70264A274B0021D1503E
:103A6000244A2449274BC958274B1940254BD1508C
:103A7000204B204A1268C02109030A431A601D4ADC
:103A80001C49204BC958214B0B4080214904194344
:103A90001C4BD1501E4B06221A701D4B00225A702F
:103AA0001B4B1B4AD278D1B21F220A40D2B2DA7025
:103AB000184B80221A70164B00221A71144B0022E8
:103AC0005A71C046124B9B79DBB21A1C102313406B
:103AD000F8D0C0460E4B9B79DBB21A1C0C23134066
:103AE000F8D1BD4680BDC04600E000E00000000007
:103AF000080D000000700440441000003810000061
:103B000000D0074004100000FFFFFEFFFFFFFFFC96
:103B1000004006400050064080B500AF394B394A9E
:103B20005279D2B21F218A43D2B25A71354B354AEB
:103B30001279D2B207218A43D2B21A71324B324A79
:103B40001278D2B2D2B273218A43D2B250210A4340
:103B5000D2B2D2B21A702C4B2B4A5278D2B2D2B215
:103B600063218A43D2B240210A43D2B2D2B25A7000
:103B7000254B254A9278D2B219218A43D2B29A7043
:103B8000224B00221A70224B214A5169214A0A40D5
:103B90005A61214A2049D2231B01CB581B021B0A20
:103BA000C02109061943D2231B01D1501B4B1B4ACC
:103BB000116D1B4A0A40E021C9000A431A65194ADF
:103BC0001849C1239B00C958174B1940C1239B00BA
:103BD000D150FFF711FC002000F0C0F8FFF796FD70
:103BE000002000F073F8FFF79DFD0020FFF7A6FD11
:103BF000FFF762FD002000F019F8FFF77BFD62B6C9
:103C0000BD4680BD00F0074000D0074000E00740FF
:103C100000F00F40FFBFFFFF00E000E00090044015
:103C2000FFF8FFFE00E100E0FFFF00FF80B584B079
:103C300000AF7860114BFB60FB687A681A60104B2C
:103C40000F4A52698021C9020A435A610C4B0C4A3F
:103C500011680C4A0A401A600B4B0B4A916C0B4AD4
:103C60000A40802149000A439A64094BFA685A6164
:103C7000FB68181CBD4604B080BDC04618F1FF1F8C
:103C800040F00F40FFFFFBFF00A00440FFF8FFFEE5
:103C9000F8F0FF1F80B582B000AF7860034B802240
:103CA000D2029A60BD4602B080BDC04640F00FF817
:103CB00080B582B000AF7860034B8022D2025A6098
:103CC000BD4602B080BDC04640F00FF880B584B05C
:103CD00000AF7860104BFB60FB687A681A600F4B8E
:103CE0000E4A526902210A435A610C4B0B4A126870
:103CF00002218A431A600A4B094A5168094A0A405C
:103D0000802149000A435A60074BFA68DA60FB6871
:103D1000181CBD4604B080BD1CF1FF1FC0F00F4051
:103D200000C00440FFF8FFFEF8F0FF1F80B582B02E
:103D300000AF7860024B02229A60BD4602B080BD9F
:103D4000C0F00FF880B582B000AF7860024B02225D
:103D50005A60BD4602B080BDC0F00FF880B584B097
:103D600000AF7860114BFB60FB687A681A60104BFB
:103D70000F4A5269802109030A435A610C4B0C4ACD
:103D800011680C4A0A401A600B4B0B4AD16C0B4A63
:103D90000A40802149000A43DA64094BFA689A60B4
:103DA000FB68181CBD4604B080BDC04620F1FF1F53
:103DB00040F00F40FFFFF7FF00A00440FFF8FFFEB8
:103DC000F8F0FF1F80B582B000AF7860034B80220F
:103DD00012039A60BD4602B080BDC04640F00FF8A5
:103DE00080B582B000AF7860034B802212035A6026
:103DF000BD4602B080BDC04640F00FF880B582B02D
:103E000000AF786001F0A2F9BD4602B080BDC046A7
:103E100080B500AF054A064BD31A054A101C002195
:103E20001A1C01F0B0FBBD4680BDC04634F2FF1F36
:103E3000E8F0FF1F04F032FCFFF7E6FDFFF7E8FFB4
:103E400004F060FC04F0DEFB04F036FC044B0020C0
:103E5000191C00F0A7FB031C181C01F069FBC046ED
:103E600024F1FF1F80B582B000AF7860FEE7C04646
:103E700080B500AF684A6849684BCB588021C900BB
:103E80001943664BD150644A6349644BCB58802137
:103E900089011943614BD1505F4A5F495F4BCB5851
:103EA0008021090119435D4BD1505D4B5C4A12687A
:103EB000C02189000A431A60594B594A5268C021EF
:103EC00089000A435A60564B554A9268C0218900BE
:103ED0000A439A60524B524AD268C02189000A4371
:103EE000DA60504B4F4A9268802149000A439A6039
:103EF0004D4B4D4A526F802149000A435A674A4B45
:103F0000494A126D802149000A431A65464B464AC8
:103F1000526D802149000A435A65434B424A926DD3
:103F2000802149000A439A653B4A3B493F4BCB58A5
:103F30008021890419433D4BD150374A36493B4BC8
:103F4000CB588021C9041943384BD150324A3249E9
:103F5000374BCB58802149041943354BD150354B51
:103F600000221A60344B00221A60324BFA225201AE
:103F70009A60314BFA2252019A602E4B2D4A1268F8
:103F80001A602D4B2C4A12681A602A4B2822DA60DC
:103F9000284B28225A61284B2822DA60264B2822F7
:103FA0005A61244B00221A61224B00229A61224B53
:103FB00000221A61204B00229A611E4B1D4A126892
:103FC00008210A431A601C4B1B4A126808210A4345
:103FD0001A601A4B194A526904210A435A61184B54
:103FE000174A526917490A435A61154B144A126815
:103FF000802189050A431A60114B114A12688021F9
:1040000089030A431A600E4B0D4A12688021490346
:104010000A431A60BD4680BD00700440381000009D
:1040200000A0044000B0044000D004403C10000058
:10403000041000000090034000A0034080F00F40F7
:1040400000F10F400000702080B584B000AFF86030
:10405000B9607A603B60094BFA2212011A61074B82
:10406000FA2212019A61064BFA2212011A61044BDC
:10407000FA2212019A61BD4604B080BD009003404F
:1040800000A0034080B500AF204A2049204BCB5808
:10409000402119431E4BD1501C4A1C491D4BCB5883
:1040A0008021890119431B4BD1501B4BA022D20008
:1040B0001A66194BA022D2005A66184B14225A7065
:1040C000164B80229A70114A1049124BCB5880210E
:1040D000890019430F4BD150114B114A926B114972
:1040E0000A439A63104A1049C0235B00CB588021D1
:1040F000C9051943C0235B00D1500B4B0A4A126813
:104100008021C9050A431A60BD4680BD0070044085
:10411000341000003810000000D004400060064059
:104120000090044000010A0100E100E080B582B087
:1041300000AFFB1D00221A701D202B21402200F031
:10414000D5FD1D202B2100F03DFE031C191CFB1D7D
:1041500040220A401A70FB1D1B78002BF1D11D2054
:104160000E21002200F0C2FD1D202B21022200F0B2
:10417000BDFD1D202A21252200F0B8FDBD4602B05C
:1041800080BDC04680B582B000AFFB1D00221A7012
:1041900009E01D20002100F015FE031C191CFB1D69
:1041A00008220A401A70FB1D1B78002BF1D0434BEC
:1041B0001D200121062200F0ADFE404B1B781B02A2
:1041C0009AB23E4B5B7813439BB21BB29B109AB2E0
:1041D0003B4B1A80394B9B781B029AB2374BDB78EA
:1041E00013439BB21BB29B109AB2364B1A80334BCF
:1041F0001B791B029AB2314B5B7913439BB21BB202
:104200009B109AB2304B1A802D4B1B881BB2002B8F
:1042100000DA0733DB109BB2DBB25B42DAB22B4B26
:104220001A70284B1B881BB2002B00DA0733DB10F7
:104230009BB2DBB25B42DAB2254B1A70224B1B8871
:104240001BB2244A9B18002B00DA0733DB10DBB2C9
:104250005B42DAB2204B1A701D202A21002200F0A6
:1042600045FD1A4B1B781D202F211A1C00F03EFD26
:10427000174B1B781D2030211A1C00F037FD164B00
:104280001B781D2031211A1C00F030FD1D202C212F
:10429000002200F02BFD1D202D21012200F026FD23
:1042A0001D202E21012200F021FD1D202A21252282
:1042B00000F01CFDBD4602B080BDC04654F1FF1F9A
:1042C0005CF1FF1F68F1FF1F66F1FF1F6BF1FF1F1D
:1042D0006AF1FF1F00F0FFFF50F1FF1F80B582B0B1
:1042E00000AF78603960214B1D200121062200F0CB
:1042F00011FE1E4B1B781B029AB21C4B5B781343BA
:104300009BB21BB29B109AB2194B1A80174B9B7829
:104310001B029AB2154BDB7813439BB21BB29B1066
:104320009AB2144B1A80124B1B881BB2181CFDF753
:1043300075F8031C181C8B21C905FCF777FB031CBF
:104340001A1C7B681A600B4B1B881BB2181CFDF7EC
:1043500065F8031C181C8B21C905FCF767FB031CBF
:104360001A1C3B681A60BD4602B080BD54F1FF1FA5
:104370005CF1FF1F68F1FF1F80B584B000AF78606B
:104380007B68FB60FB6803221A72BD4604B080BDE7
:1043900080B584B000AF78607B68FB60FB681B7AF7
:1043A000DBB2012B08D1FB685B68181CFFF79EF895
:1043B000FB6802221A7210E0FB681B7ADBB2022B48
:1043C0000BD1FB685A68FB680C33101C00211A1CC7
:1043D000FFF79AF8FB6804221A72BD4604B080BD4C
:1043E00080B584B000AF021CFB1D1A70FB1D1A784B
:1043F000131C5B009B185B000A4A9B18FB60FB6860
:10440000181C6421FCF718F8031C1A1C131C1B0150
:104410009B1AFA68D31AFB60FB689BB2181CBD4656
:1044200004B080BDF10C000090B583B000AF0A1C51
:10443000BB1D011C19807B1D1A70BB1D1B886422CB
:10444000141C5C437B1D1B78181CFFF7C9FF031C61
:10445000201C191CFBF7F0FF031C5B089BB2181C07
:10446000BD4603B090BDC04680B582B000AF194BC9
:104470001B68181CFFF712F9C820FEF79BFF154BAD
:1044800001221A72134B1B68181CFFF7F9F809E098
:10449000104B1B7ADBB2032B04D10E4B00221A7295
:1044A000002313E00B4B1B7ADBB2042BF0D1094B3A
:1044B000DB68FA2292005343181C0749FBF7BCFF44
:1044C000031C1A1CBB1D1A80BB1D1B88181CBD4673
:1044D00002B080BD28F1FF1F3D0A000080B500AF8B
:1044E0000A4B00221A72094B0022DA600020FFF703
:1044F00093F8021C054B1A60044B181CFEF780FF52
:10450000021C024B5A60BD4680BDC04628F1FF1F09
:1045100090B583B000AFBC1DFFF7A6FF031C23803E
:10452000BB1D1B88181C1621FFF77EFF031C1A1CDD
:104530001A4B1A80194B1B88092B05D8184B5B693D
:10454000181CFFF7A7FB04E0154B5B69181CFFF76D
:10455000AFFB124B1B88092B09D9104B1B88642B0E
:1045600005D80F4BDB68181CFFF7E0FB04E00C4B91
:10457000DB68181CFFF7E6FB084B1B88642B05D98A
:10458000074B9B68181CFFF71DFC04E0044B9B685D
:10459000181CFFF725FCBD4603B090BD6CF1FF1F52
:1045A000F8F0FF1FF0B5DDB006AFFFF7B5FAAA4B84
:1045B00000221A70FFF766FDFFF7B8FDFFF7E2FD76
:1045C000FFF756FCFFF78AFFA44B00221A70002366
:1045D000AA214900C9190B6000F008FF9C22520073
:1045E000BB1800221A609C2464003B1900225A6008
:1045F0009B4BA8256D00ED192B600023A6214900D7
:10460000C9190B600023A4225200D2191360381C70
:10461000E030A0235B00F918942464003A199C252B
:104620006D007B19A8256D00ED192C680094A62556
:104630006D00ED192C680194A4256D00ED192C680E
:104640000294012403940024049400F00FF9381C10
:104650005030A02149007B18191D94225200BB182C
:104660001A1C08329C2464003B190433A8256D00F1
:10467000ED192C680094A6256D00ED192C680194A5
:10468000A4256D00ED192C680294012403940124E3
:10469000049400F0EBF8381C9830A0225200B918AE
:1046A000942464003B191A1D9C256D007B19A825D4
:1046B0006D00ED192C680094A6256D00ED192C688D
:1046C0000194A4256D00ED192C6802940124039433
:1046D0000124049400F0CAF8381C0830A0214900D5
:1046E0007B18191D94225200BB181A1C0C329C24F2
:1046F00064003B190433A8256D00ED192C68009463
:10470000A6256D00ED192C680194A4256D00ED1906
:104710002C680294012403940024049400F0A6F869
:10472000C0464D4B1B78002BFBD0A02149007A18C6
:10473000A02464003B190433101C191CFFF7CEFDA4
:10474000454B00221A703B1CE033181C012100F07D
:1047500045FA3B1C9833181C012100F03FFA3B1C22
:104760005033181C012100F039FA3B1C0833181C87
:10477000012100F033FA00E0C046374B1B78002BD4
:1047800035D0354B00221A70A0256D007A19A02172
:1047900049007B180433101C191CFFF79FFDFFF71D
:1047A000B7FE3B1CE033181C00F092F83B1C503362
:1047B000181C00F08DF83B1C9833181C00F088F88A
:1047C0003B1C0833181C00F083F894225200BB18DD
:1047D0001868942464003B19596894256D007B196E
:1047E0009A68942464003B19DB68FFF72DFC1B4B8F
:1047F0001B78002BC0D0194B00221A70AA256D001F
:10480000ED192B680133AA214900C9190B60A022B8
:104810005200BB181B68181CFEF7AAFC041C0D1CD8
:10482000A02149007B185B68181CFEF7A1FC3860CA
:1048300079600C4909880E1C0B48AA225200D21933
:1048400011683A687B68009201930296221C2B1C27
:1048500000F05AFE90E7C0465AF1FF1F64F1FF1FB7
:10486000005043476CF1FF1F3887000090B587B0B8
:1048700002AFF860B9607A603B60FB687A685A62A0
:10488000FB68BA681A62FB683A689A62FA6844235D
:104890000021D154F96800220C4B081C111C1A1C71
:1048A00000F03CF9FB6864229A63FA683B6B101CC9
:1048B000191C00F0E7F9F868396A7A6ABB6AFC6A81
:1048C000009400F0B1F8BD4605B090BD0000FA4577
:1048D00090B587B000AF78607A684423D35C002B32
:1048E00001D100239CE07B681B6A1B683B617B68ED
:1048F0009B6A1B68181C3969FCF7BAFB031CFB6038
:104900007B685B6B3869191CFCF7B2FB031CBB604E
:104910007B681C6B7B681B69181CF968FCF778FACC
:10492000031C201C191CFBF7AFFE031C1A1C7B6820
:104930001A637A684523D35C002B10D17B681C6B0B
:104940007B68DB68181CB968FCF762FA031C201C42
:10495000191CFCF78DFB031C1A1C7B681A637B680F
:104960001A6B7B681B6C101C191CFBF779FE031C6F
:10497000002B04D07B681A6C7B681A630EE07B689E
:104980001A6B7B68DB6B101C191CFBF755FE031CB4
:10499000002B03D07B68DA6B7B681A637A68452347
:1049A000D35C002B08D07B68DB68181CF968FCF727
:1049B0002FFA031C7B6101E000237B617B681C6B89
:1049C0007B685B69181CB968FCF722FA031C201C81
:1049D000191CFCF74DFB031C7869191CFBF754FEEE
:1049E000031C7B617B681B6C181C7969FBF724FE38
:1049F000031C002B03D07B681B6C7B610BE07B6886
:104A0000DB6B181C7969FBF72BFE031C002B02D013
:104A10007B68DB6B7B617B685B6A7A691A60012368
:104A2000181CBD4607B090BD80B586B000AFF860D9
:104A3000B9607A603B60B8680021FBF7FDFD031C9C
:104A4000002B64D178680021FBF7F6FD031C002BD6
:104A50005DD138680021FBF7EFFD031C002B56D118
:104A6000FB683A6ADA613B6A013B5A425341DBB266
:104A7000191CFA684523D154FB68BA681A60FB68B0
:104A80007A685A60FB683A689A60FB689B6B181CEE
:104A9000FCF718FD031C181C1F49FBF7C7FF031C7C
:104AA0007B61FB68BA68DA6078687969FCF7B0F90D
:104AB000031C1A1CFB681A6138687969FBF7B6FF9A
:104AC000031C1A1CFB685A61FB689B69012B1FD1F0
:104AD000FB68DB680020191CFCF7CAFA031C1A1CCF
:104AE000FB68DA60FB681B690020191CFCF7C0FA40
:104AF000031C1A1CFB681A61FB685B690020191C07
:104B0000FCF7B6FA031C1A1CFB685A6100E0C046A9
:104B1000BD4606B080BDC04600007A4480B584B072
:104B200000AFF860B9607A60B8687968FBF7A2FDF9
:104B3000031C002B4DD1FB68BA68DA63FB687A6806
:104B40001A64FA684423D35C002B43D0FB685B6A89
:104B50001A68FB681B6C101C191CFBF781FD031CF9
:104B6000002B05D0FB685B6AFA68126C1A6010E0D3
:104B7000FB685B6A1A68FB68DB6B101C191CFBF78F
:104B80005BFD031C002B04D0FB685B6AFA68D26BE8
:104B90001A60FB681A6BFB681B6C101C191CFBF776
:104BA0005FFD031C002B04D0FB681A6CFB681A63C2
:104BB00010E0FB681A6BFB68DB6B101C191CFBF721
:104BC0003BFD031C002B05D0FB68DA6BFB681A6306
:104BD00000E0C046BD4604B080BDC04680B584B08C
:104BE00000AF786039603B68013B5A425341DAB20A
:104BF0003B1C0F331A703B1C0F331B78002B08D063
:104C00007A684423D35C002B03D17B68181C00F026
:104C100009F87A68391C0F3144230978D154BD460C
:104C200004B080BD80B582B000AF78607B685B6AFD
:104C30001A687B681A637B681B6A1A687B685A6308
:104C40007B681A6B7B681B6C101C191CFBF708FD3A
:104C5000031C002B04D07B681A6C7B681A630EE07F
:104C60007B681A6B7B68DB6B101C191CFBF7E4FC80
:104C7000031C002B03D07B68DA6B7B681A63BD468C
:104C800002B080BD80B582B000AF786039607A68CC
:104C90004423D35C002B22D07B689A693B689A42FC
:104CA0001DD07B68DB680020191CFCF7E1F9031CB0
:104CB0001A1C7B68DA607B681B690020191CFCF7F2
:104CC000D7F9031C1A1C7B681A617B685B6900209A
:104CD000191CFCF7CDF9031C1A1C7B685A617B6810
:104CE0003A689A61BD4602B080BDC04680B582B0C8
:104CF00000AFFB1D1870BB1D19707B1D1A70304B67
:104D00002F4A9278D2B210210A43D2B29A702C4B19
:104D10002B4A9278D2B220210A43D2B29A70284B01
:104D2000FA1D12785200D2B21A71254BDB78DBB231
:104D30001A1C02231340F8D0214B214AD278D2B258
:104D400002210A43D2B2DA701D4BBA1D12781A71D1
:104D50001B4BDB78DBB21A1C02231340F8D0184B34
:104D6000174AD278D2B202210A43D2B2DA70144B77
:104D70007A1D12781A71124BDB78DBB21A1C0223EF
:104D80001340F8D00E4B0E4AD278D2B202210A4319
:104D9000D2B2DA700A4B0A4A9278D2B220218A4300
:104DA000D2B29A70064B064A9278D2B210218A4348
:104DB000D2B29A70322000F09BF9BD4602B080BD9D
:104DC0000060064080B584B000AF0A1CFB1D011CCA
:104DD0001970BB1D1A704E4B4D4A9278D2B21021F9
:104DE0000A43D2B29A704A4B494A9278D2B22021F1
:104DF0000A43D2B29A70464BFA1D12785200D2B2D0
:104E00001A71434BDB78DBB21A1C02231340F8D033
:104E10003F4B3F4AD278D2B202210A43D2B2DA7073
:104E20003B4BBA1D12781A71394BDB78DBB21A1C76
:104E300002231340F8D0364B354AD278D2B2022141
:104E40000A43D2B2DA70324B314A9278D2B204219C
:104E50000A43D2B29A702E4BFA1D12785200D2B287
:104E600001210A43D2B2D2B21A71294BDB78DBB2EC
:104E70001A1C02231340F8D0254B254AD278D2B20F
:104E800002210A43D2B2DA70214B214A9278D2B27F
:104E900010218A43D2B29A701D4B1D4A9278D2B229
:104EA00008210A43D2B29A70194A3B1C0F33127977
:104EB0001A70174BDB78DBB21A1C02231340F8D0B0
:104EC000134B134AD278D2B202210A43D2B2DA701B
:104ED0000F4B0F4A9278D2B220218A43D2B29A70F5
:104EE0000B4B0B4A9278D2B210218A43D2B29A70FD
:104EF000074A3B1C0F3312791A70322000F0F8F881
:104F00003B1C0F331B78181CBD4604B080BDC04647
:104F10000060064080B584B000AF3B60FB1D187098
:104F2000BB1D19707B1D1A70704B704A9278D2B2FB
:104F300010210A43D2B29A706C4B6C4A9278D2B26A
:104F400020210A43D2B29A70684BFA1D127852009F
:104F5000D2B21A71654BDB78DBB21A1C0223134004
:104F6000F8D0624B614AD278D2B202210A43D2B25F
:104F7000DA705E4BBA1D12781A715C4BDB78DBB2CB
:104F80001A1C02231340F8D0584B584AD278D2B298
:104F900002210A43D2B2DA70544B544A9278D2B208
:104FA00004210A43D2B29A70504BFA1D1278520073
:104FB000D2B201210A43D2B2D2B21A714B4BDB7882
:104FC000DBB21A1C02231340F8D0484B474AD27870
:104FD000D2B202210A43D2B2DA70444B434A9278E9
:104FE000D2B210218A43D2B29A70404B3F4A927893
:104FF000D2B208218A43D2B29A703C4A3B1C0F338A
:1050000012791A70394BDB78DBB21A1C0223134079
:10501000F8D0364B354AD278D2B202210A43D2B206
:10502000DA703B1C0F3300221A701DE02F4B1B79E6
:10503000DAB23B681A703B6801333B602B4BDB787C
:10504000DBB21A1C02231340F8D0284B274AD2782F
:10505000D2B202210A43D2B2DA703B1C0F333A1C9F
:105060000F32127801321A703B1C0F331A787B1DF5
:105070001B78023B9A42D9DB1C4B1C4A9278D2B275
:1050800008210A43D2B29A70184B1B79DAB23B68F6
:105090001A703B6801333B60144BDB78DBB21A1C9F
:1050A00002231340F8D0114B104AD278D2B2022119
:1050B0000A43D2B2DA700D4B0C4A9278D2B2202158
:1050C0008A43D2B29A70094B084A9278D2B2102120
:1050D0008A43D2B29A70054B1B79DAB23B681A70D8
:1050E000322000F005F8BD4604B080BD00600640E7
:1050F00080B584B000AF78600023FB6003E0C04659
:10510000FB680133FB60FA687B689A42F7DBBD46B7
:1051100004B080BD80B500AFBD4680BD80B582B013
:1051200000AF78607B68181CFFF732F9BD4602B00B
:1051300080BDC04680B582B000AF78607B68181C27
:10514000FFF71AF9BD4602B080BDC04680B500AF7A
:10515000024B01221A70BD4680BDC0465AF1FF1FA6
:1051600080B586B000AFF860B9607A6000237B61DB
:105170002CE01D4B1F221A711B4B1B79DBB21A1C32
:10518000202313400AD17B69002B24D1C046164B43
:105190001B79DBB21A1C20231340F8D07B69013342
:1051A0007B61114BDB79DAB2BB681A70BB681B7884
:1051B0000D2B03D1BB680A221A700DE0BB680133C6
:1051C000BB607B681B685A1E7B681A607B681B6823
:1051D000002BCED100E0C0467B687A691A600023BC
:1051E000181CBD4606B080BD00A0064080B586B044
:1051F00000AFF860B9607A6000237B6125E0C046AB
:10520000184B1B79DBB2DBB25BB2002BF8DABB6860
:105210001B780A2B0AD1134B0D22DA71C046114BB1
:105220001B79DBB2DBB25BB2002BF8DA0D4BBA684C
:105230001278DA71BB680133BB607B6901337B6133
:105240007B681B685A1E7B681A607B681B68002B92
:10525000D5D17B687A691A600023181CBD4606B058
:1052600080BDC04600A0064080B582B000AF786027
:105270000023181CBD4602B080BDC04680B500AFFB
:105280004E4A4E494E4BCB58A021090119434C4B75
:10529000D1504A4A4B4B4C49D150484A47494B4B55
:1052A000CB58802149021943484BD150434B434AC4
:1052B0001168474A0A401A60404A4049434BC9585E
:1052C000444B0B40802149041943404BD150424B81
:1052D000414A916C414A0A409A643F4B3E4AD16C24
:1052E0003E4A0A40DA643E4B80221A703D4B24222B
:1052F0005A703C4B9A221A703A4B3A4AD278D1B241
:105300001F220A40D2B2DA70364B01221A71354B95
:1053100000225A71C046334B9B79DBB21A1C102312
:105320001340F8D1C0462F4B9B79DBB21A1C0C23DB
:105330001340082BF7D12A4B80221A70294B9A224E
:105340001A70284B24225A70264B01221A71254BC1
:1053500040225A71C046234B9B79DBB21A1C0C23A6
:105360001340082BF7D1C0461E4B9B79DBB21A1CA9
:1053700040231340F8D01A4B80221A70194B1A227E
:105380001A70184B24225A70164B01221A71154BB1
:1053900040225A71C046134B9B79DBB21A1C0C2376
:1053A00013400C2BF7D1104B0F4A51680B4A0A409F
:1053B000802149000A435A60BD4680BD0070044008
:1053C000381000004410000000000110041000001C
:1053D000FFFFF3FFFFFFFFFC00900440FFF8FFFE1C
:1053E000005006400040064000B0044080B500AFC9
:1053F000FFF744FF3D4A3D493D4BCB588021C90052
:1054000019433B4BD1503B4B3A4A51683A4A0A4008
:10541000802189000A435A60364B364A9168364AE1
:105420000A40802189000A439A60344B334AD2787B
:10543000D2B208218A43D2B2DA70304B2F4AD278E6
:10544000D2B204218A43D2B2DA702C4B00229A7075
:105450002A4B00229A71294B00225A71234A234970
:10546000274BC958274B0B408021C9041943244BB3
:10547000D150224B214A1278D2B2D2B21F218A4394
:10548000D2B201210A43D2B2D2B21A701B4B3922D6
:105490005A701A4B194A927AD2B2D2B21F218A4359
:1054A000D2B203210A43D2B2D2B29A72134B134A38
:1054B000D27AD2B2D2B202210A43D2B2D2B2DA72D4
:1054C0000E4B0E4AD278D2B2D2B208210A43D2B2DF
:1054D000D2B2DA70094B094AD278D2B2D2B20421E0
:1054E0000A43D2B2D2B2DA70BD4680BD0070044029
:1054F0003410000000900440FFF8FFFE00A00640BA
:1055000004100000FFFFFFF30FB41FB506AB04CB80
:10551000002200920449069A0448039300F050F9CF
:1055200005B008BC04B0184744F0FF1F47690000ED
:1055300038B5051C03F0A4F803F088F8084C23687C
:10554000002B02D0984700202060064C21680029DB
:1055500002D0884700222260281CFEF783FC38BD59
:1055600038F1FF1F3CF1FF1F00B5C9B20378421CA0
:10557000002B03D08B4205D0101CF7E74B4259415A
:105580004942084000BD10B5041C00F002F8201C80
:1055900010BD30B5C9B2031C1F2A31D944420323C0
:1055A000234005D0D21AC51801700130A842FBD1A2
:1055B000002905D00D060C042C430B02214319438E
:1055C0005409031C002C0ED0251C013D19605960A4
:1055D0009960D960196159619961D9612033002DB1
:1055E000F3D16301C318D006400F07D0041C1D1C63
:1055F000013C02C5002CFBD180001B180324224073
:105600009D18002A03D019700133AB42FBD130BD85
:1056100000B5431E01331A78002AFBD1181A00BDC9
:10562000F0B589B001901F1C0EAB03910792029058
:105630001A78081C01990FAC0138002604922578CD
:105640000670B14217D1119BB34214D1049B002BB9
:1056500001D06F2D2FD0642D02D0692D00D0A8E08D
:10566000022F02D1039802389FE0012F00D0A0E062
:105670000398023894E0692D0ED004D8582D16D026
:10568000642D1CD108E0752D04D0782D0FD06F2D1E
:1056900015D110E0002712E0019A002A0FDA8024C9
:1056A0002606B2420DD051420191029109E0002735
:1056B0003E1C102407E000273E1C082403E00026BF
:1056C00000E001260A240090002006900298211C88
:1056D000FAF7F6FE02980591211CFAF7ADFE059A3D
:1056E0000290092A01D8303205E0059A3732782D28
:1056F00001D1059A57320098069B02990138D2B21F
:10570000009002700133002901D00693DEE7011CEE
:10571000082C0BD10498002808D0302A06D00B1C86
:10572000013B302200931A70069B0233079802282F
:105730000FD1002E01D1002F02D010990139109104
:10574000109A1192102C04D10498002801D0023A2A
:10575000119203990098119A091A8918164A9142D0
:1057600026DC0099CA181199121A8A4203DA013804
:1057700030220270F5E7102C0AD1049C002C07D0CF
:10578000019B002B04D0421E30210238157001709D
:10579000002E02D001382D2108E0012F02D101385E
:1057A0002B2103E0022F04D101382021017000E0F9
:1057B000002009B0F0BDC046FD010000000000005F
:1057C000F0B5BB4C1D1CA5446B460D914A332021FE
:1057D00000260C9019700B9205960B980278002AFF
:1057E00001D100F00EFC0B982521FFF7BDFE0E90B5
:1057F000002813D10B98FFF70BFF0599021C08181E
:105800000590002A01D100F0FCFB0D980B990C9F2C
:10581000B847002801D000F0F4FB00E10E9F0B9C7C
:1058200005993A1B8B180593002A06D00D980B9901
:105830000C9EB047002800D1F1E00E980E9A4778F0
:1058400001323B1E252B06D10230002201210B9094
:105850000792069172E00027012408970A970694A0
:105860002B2B00D1C6E306DC202B0AD0232B14D12E
:1058700001210891C2E32D2B00D1B9E3302B0CD1CB
:1058800005E00A9B012B00D1B8E30226B3E3069B97
:10589000002B00D1B2E30224AFE3171C2A2B00D067
:1058A00097E3281D2D680795002D03DA6C4200212F
:1058B000079406917B780132051C079F7D4EB74205
:1058C00000DD78E32E2B00D0CDE05378541C002669
:1058D0002A2B00D0BAE02E689378F143C80F043524
:1058E00002321C1C4C3C0021202C00D8BEE0DFB250
:1058F000662B00D1F5E000DCC2E06F2B00D1E5E0C3
:1059000000DCCDE0732B00D1FBE000DDDAE0702B92
:1059100000D0FFE0012478270826032108940132F3
:105920000B92672F00D900E1652F00D327E1582F94
:1059300000D115E107D8252F00D0EDE01EAC27706F
:10594000099501251DE0632F00D12EE3642F00D0BF
:1059500031E3281D09902868032900D0F7E0089A50
:10596000079900920291019703969EA9069A0A9BB5
:10597000FFF756FE041C002C00D11CE34E4E6E4473
:10598000351B069E002E3CD02020022E00D1302058
:105990006B464A33187022782B2A04D02D2A02D065
:1059A0002E1C202A0BD12E1C302808D10D98211C2A
:1059B00001220C9EB047002831D001346E1E06999A
:1059C00002290ED1612F01D0412F0AD1012E26DDEF
:1059D0000D98211C02220C9FB84700281FD0023EC0
:1059E00002342F1C079DAF4209DA69460D984A31EF
:1059F00001220C9DA847002811D00137F2E7351C81
:105A000000E02F1C002D06D0211C0D982A1C0C9C98
:105A1000A047002803D00698002812D10EE00122EA
:105A200053420593EDE269464B3120240D98012243
:105A30000C9B0C7098470028F1D00137079B9F42C0
:105A4000F1DB059AD6190596099DC6E61A1C303A6F
:105A5000092A05D80A23734301349E182378F5E7F1
:105A6000221C01203DE70026301C3AE7134F395D28
:105A7000134F3C57002C00D139E75378013236E7F9
:105A8000582B23D006DC462B2BD0472B2CD0452B74
:105A900040D12CE0642B19D029DC632B3AD12EE0C5
:105AA000692B13D06E2B2FD0672B33D11CE0C0464F
:105AB00084FDFFFFFD01000077020000A9880000BF
:105AC00088880000752B01D0782B23D1042921D0A0
:105AD00000281DD0069B022B00D020E7012406944D
:105AE0001DE7022906D115E0002E00D101264B1E2C
:105AF000012B0FD9002800D011E706260FE7002858
:105B000008D1002906D10AE7042900D007E701E0FF
:105B1000012604E7FF2702E7252F00D24BE2381CBD
:105B20004538022800D946E229E06F2F18D006D860
:105B3000692F00D10DE76E2F00D03CE222E2752FD5
:105B40000ED0782F0CD0732F00D034E2F9E1022967
:105B500001D100B203E7012900D000E740B2FEE620
:105B60002C1D09942868032900D1F8E6022901D1E7
:105B700080B2F4E6012900D0F1E6C0B2EFE60735C5
:105B800007229543042903D12B1C0833099302E013
:105B9000291C08310991BE482C686D68864200DDD9
:105BA00009E213A800224E2102706944202314AA9E
:105BB0000B8000922B1C221C01F076FB15A80378A9
:105BC00014A9C918053114AB1A79012A09D9013968
:105BD0000878302805D15888013A01301A71588068
:105BE000F1E75979492906D04E2924D0302943D1EB
:105BF00000245C8040E0201C291CA44BA24AFAF738
:105C0000E1FC00280CD0381C00F0C6FD002803D0B1
:105C1000A048A14968441AE09E48A049684416E09B
:105C2000381C00F0B9FD002802D09DA89C491FE057
:105C30009DA89C491CE01E78381C72B2002A0ED028
:105C400000F0AAFD002806D092489749684401F068
:105C500007FB904C73E18F4894496844F7E700F0E4
:105C60009BFD002802D09DA8914901E091499DA883
:105C700001F0F6FA9DAC7EE652256D442B88002497
:105C8000013BD01828808C4D6D442C70472F0FD0CD
:105C900005D8452F32D0462F00D04FE1A2E0662F25
:105CA00000D19FE0672F03D0652F00D046E125E0AB
:105CB000B24203DD14A8311C01F0CEFC14AB02206B
:105CC0001A5E111D01DBB2420CDB089A013E002A6C
:105CD00001D11879461E45231093672F0FD16525F2
:105CE00010950CE00899D043361800297AD11E7916
:105CF0003418E543EB17261C1E4073E01097711C07
:105D00000F9114A804798C4201DD01F0A5FC14AABE
:105D10000220145E2B201190002C02DA2D23644205
:105D20001193664D6D44002C0CD0201C0A21FAF70B
:105D300027FC30312970201C0A21FAF7CBFB013DEA
:105D4000041CF0E75D4969444A1B012AEDDD11ACF2
:105D5000207810AB28709EAA013D1978541B4C483E
:105D6000A3192970834200DD25E114A90B799E4215
:105D700009DB0F9AD01A021C291A013A02D33024E7
:105D80008C54F9E70D1C9EAC4D49E01840181A1CC4
:105D9000013A002A05D059426C184118895CA15477
:105DA000F6E7013BED1A002E02D1089E002E02D02C
:105DB000013D2E232B7055226A4410786C1E2070F2
:105DC00014A900268B57002B01D0AC1EA6E00A9A1E
:105DD000012A01D1AC1EA7E00A98022800D0CAE52A
:105DE000AC1EA8E014AC21790220225E881A01388A
:105DF000C543EB170340B3420CDDF31AC918201C4E
:105E000001F02AFC22790221645E111B0139C8438A
:105E1000C3170B4052256D440022AA5E1C48013274
